:040000006CEF16F09B
:08000800046ED8CF05F0E0CF33
:1000100006F00001E9CF0CF0EACF07F0E1CF08F0DD
:10002000E2CF09F0D9CF0AF0DACF0BF0F3CF12F01C
:10003000F4CF13F0FACF14F000C00EF001C00FF0AF
:1000400002C010F003C011F0F2AA2AEF00F0F2B4DF
:100050006CEF06F09DAA30EF00F09EBA91EF00F031
:100060000EC000F00FC001F010C002F011C003F08C
:100070000CC0E9FF07C0EAFF078E08C0E1FF09C016
:10008000E2FF0AC0D9FF0BC0DAFF12C0F3FF13C0B2
:10009000F4FF14C0FAFF045006C0E0FF05C0D8FF0B
:1000A0001000F2CF0DF0F29EF76ABC0FF66E000E54
:1000B000F7220900F5500DBEF28E120030303030BC
:1000C00030009EAAFED7ABCF1DF0AECF01F01DA22F
:1000D00002D0AB98AB8894EF00F00900F5520DE028
:1000E000F6CFE2F1F7CFE3F1F5509EA8FED7AD6E63
:1000F000E2C1F6FFE3C1F7FFF0D71200EF5210E0C4
:10010000EACFE3F1E9CFE2F1EF509EA8FED7AD6E62
:10011000E3C1EAFFE2C1E9FFE92AD8B4EA2AEED74F
:100120001200F29A516ACDD701C051F05150230804
:1001300006E1575204E1010E576EADD011D0515077
:100140002A0806E1565204E1010E566EA4D008D0EA
:100150005150240805E1585203E1010E586E9BD01E
:100160005150230805E0572C03D051C054F03AD029
:1001700051502A080EE0562C0CD01E501E2A036A3D
:100180001F0FE96E000E0320EA6E51C0EFFF522AE6
:1001900029D05150240826E0582C24D05150490829
:1001A00004E1010E596E77D01DD05150300804E1A2
:1001B000010E626F70D016D05150460805E1010E55
:1001C000596E646F68D00ED05150530805E1010E8E
:1001D000596E636F60D006D05150450803E1010E9F
:1001E000666F59D0515023083FE1572C3DD09C0EEB
:1001F000F66E020EF76E71DFEA6A540EE96E7EDF6C
:10020000230E9EA8FED7AD6E54504A0808E1F80EA2
:10021000946E8B80946E8B92946E8B9420D05450FD
:100220004D0808E1F80E946E8B82946E8B90946E5C
:100230008B9415D05450430808E1F80E946E8B92BD
:10024000946E8B80946E8B840AD05450520807E1D0
:10025000F80E946E8B92946E8B80946E8B84576A9A
:10026000010E596E18D017D051502A080EE1562CA5
:100270000CD0566A010E556E5230536E53325332C3
:100280001F0E53169D9A07D006D05150240803E143
:10029000582C01D0586A9E9A30EF00F0234F4B2D16
:1002A00000000101F051070B006EF031016E0132C8
:1002B00001321F0E01160150F225E96E000EF321E6
:1002C000EA6E016A012A002A01D00136002EFDD70C
:1002D000F15303E00150EF1203D0011E0150EF165D
:1002E000000112000101F051070B006EF031016EA8
:1002F000013201321F0E01160150F125E96E000E88
:10030000F221EA6EEFCF01F0002A01D00132002E77
:10031000FDD700011200080E0101E36F090EE46F22
:100320000A0EE56F0B0EE66F0C0EE76F0D0EE86F11
:10033000180EE96F190EEA6F1A0EEB6F1B0EEC6FB9
:100340001C0EED6F1D0EEE6F036AE251AD0F016ED4
:10035000000E032203C0F0F1036AE251AD0FE96E13
:10036000000E0320EA6E010EEF5CF0C1EAFF01C04F
:10037000E9FFEF6E036AE251AD0FE96E000E032054
:10038000EA6EEF52D8A420EF06F0E251040DF350CC
:10039000036A950FE96E000E0320EA6EEFCFEFF1CE
:1003A000ECCFF0F1ECCFF1F1ECCFF2F1EF5308E14B
:1003B000F05306E1F15304E1F253D8B420EF06F014
:1003C000E251040DF350036A950FE96E000E03200D
:1003D000EA6EEFCFEFF1ECCFF0F1ECCFF1F1ECCF33
:1003E000F2F1F2BF27D0F25307E1F15305E1F053E8
:1003F00003E1EF5100081EE2036AE251E90FE96EE2
:10040000010E0320EA6EEFCFEFF1EFC1F0F1F16BD7
:100410000F0EF36F890EF26F000143DFEFC1F0F1B1
:100420000101F16B0F0EF36F920EF26F000139DFD5
:100430001ED00101036AE251E90FE96E010E0320AB
:10044000EA6EEFCFEFF1EFC1F0F1010EF16F0F0E99
:10045000F36F890EF26F000124DFEFC1F0F10101AB
:10046000F16B0F0EF36F920EF26F00011ADF0101B4
:10047000E251040DF350036A530FE96E010E03209D
:10048000EA6EEFCFEFF1ECCFF0F1ECCFF1F1ECCF82
:10049000F2F1E251040DF350036AB90FE96E000E58
:1004A0000320EA6EEFCF00F0ECCF01F0ECCF02F0CA
:1004B000ECCF03F0F2AF03D003AE16D002D003BEF0
:1004C000ABD1F251035CD8A0A7D10EE1F151025C8F
:1004D000D8A0A2D109E1F051015CD8A09DD104E1DE
:1004E0000050EF5DD8B098D1E251040DF350036A8B
:1004F000B90FE96E000E0320EA6EEFCFEFF1ECCFFB
:10050000F0F1ECCFF1F1ECCFF2F1E251040DF35048
:10051000036A3B0FE96E010E0320EA6EEFCF00F095
:10052000ECCF01F0ECCF02F0ECCF03F0F2AF03D050
:1005300003AE16D002D003BE6FD1F251035CD8A037
:100540006BD10EE1F151025CD8A066D109E1F05106
:10055000015CD8A061D104E10050EF5DD8B05CD15E
:10056000036AE251E30FE96E010E0320EA6EEFCF5A
:10057000EFF1EFC1F0F10F0EF26F800EF16F00019D
:10058000B1DE000E01A0010EEFC1F0F10101F16F2B
:100590000F0EF36F890EF26F000183DEEFC1F0F1F1
:1005A0000101F16B0F0EF36F920EF26F000179DE15
:1005B000036A0101E2515B0FE96E000E0320EA6E4F
:1005C000EF52D8A420D1036AE2515B0FE96E000E0E
:1005D0000320EA6E010EEF6EE251040DF350036A40
:1005E000950FE96E000E0320EA6EEFCFEFF1ECCF2E
:1005F000F0F1ECCFF1F1ECCFF2F1F2BF95D0F25384
:1006000008E1F15306E1F05304E1EF510008D8B0DE
:100610008BD0E251040DF350036A3B0FE96E010EDB
:100620000320EA6EEFCF00F0ECCF01F0ECCF02F048
:10063000ECCF03F003BE77D0035207E1025205E18D
:10064000015203E10050B9086EE2E251040DF3508B
:10065000036AB90F016E000E032201C0EFF103C05F
:10066000F0F1E251040DF350036AB90FE96E000E88
:100670000320EA6EEFCFF1F1ECCFF2F1ECCFF3F122
:10068000ECCFF4F1010EF125006E000EF221016EA7
:10069000000EF321026E000EF421F0C1EAFFEFC15B
:1006A000E9FF00C0EFFF01C0ECFF02C0ECFFEC6E01
:1006B00054504D0805E05450520802E05A2C33D0F3
:1006C000E251040DF350036A950F016E000E0322F0
:1006D00001C0EFF103C0F0F1E251040DF350036AE1
:1006E000950FE96E000E0320EA6EEFCFF1F1ECCF2B
:1006F000F2F1ECCFF3F1ECCFF4F1010EF15D006E0D
:10070000000EF259016E000EF359026E000EF459FC
:10071000F0C1EAFFEFC1E9FF00C0EFFF01C0ECFF4D
:1007200002C0ECFFEC6E6ED0E251040DF350036A90
:10073000B90F016E000E032201C0EFF103C0F0F10A
:10074000E251040DF350036AB90FE96E000E032065
:10075000EA6EEFCFF1F1ECCFF2F1ECCFF3F1ECCFA9
:10076000F4F1010EF15D006E000EF259016E000E03
:10077000F359026E000EF459F0C1EAFFEFC1E9FF30
:1007800000C0EFFF01C0ECFF02C0ECFFEC6E545064
:100790004D0805E05450520802E05A2C33D0E25183
:1007A000040DF350036A950F016E000E032201C081
:1007B000EFF103C0F0F1E251040DF350036A950F1D
:1007C000E96E000E0320EA6EEFCFF1F1ECCFF2F10B
:1007D000ECCFF3F1ECCFF4F1010EF125006E000E39
:1007E000F221016E000EF321026E000EF421F0C121
:1007F000EAFFEFC1E9FF00C0EFFF01C0ECFF02C05C
:10080000ECFFEC6E08D0036AE2515B0FE96E000E5C
:100810000320EA6EEF6AFCD1E251040DF350036A43
:10082000B90FE96E000E0320EA6EEFCFEFF1ECCFC7
:10083000F0F1ECCFF1F1ECCFF2F1E251040DF35015
:10084000036A530FE96E010E0320EA6EEFCF00F04A
:10085000ECCF01F0ECCF02F0ECCF03F00050EF5DF5
:10086000D8A4DCD00150F05DD8A4D8D00250F15DFE
:10087000D8A4D4D00350F25DD8A4D0D0E251040D56
:10088000F350036A950FE96E000E0320EA6EEFCF76
:10089000EFF1ECCFF0F1ECCFF1F1ECCFF2F1F2BFF0
:1008A000BCD0F25308E1F15306E1F05304E1EF51FB
:1008B0000008D8B0B2D0036AE251E30FE96E010E2E
:1008C0000320EA6EEFCFEFF1EFC1F0F10F0EF26F00
:1008D000800EF16F000106DD000E01A0010EEFC1D8
:1008E000F0F10101F16F0F0EF36F890EF26F00014D
:1008F000D8DCEFC1F0F10101F16B0F0EF36F920E36
:10090000F26F0001CEDC036A0101E2515B0FE96E78
:10091000000E0320EA6EEF520AE1036AE2515B0F18
:10092000E96E000E0320EA6E010EEF6E76D0036AC8
:10093000E2515B0FE96E000E0320EA6EEF6AE251AE
:10094000040DF350036AB90F016E000E032201C0BB
:10095000EFF103C0F0F1E251040DF350036AB90F57
:10096000E96E000E0320EA6EEFCFF1F1ECCFF2F169
:10097000ECCFF3F1ECCFF4F1010EF125006E000E97
:10098000F221016E000EF321026E000EF421F0C17F
:10099000EAFFEFC1E9FF00C0EFFF01C0ECFF02C0BA
:1009A000ECFFEC6E54504D0805E05450520802E044
:1009B0005A2C33D0E251040DF350036A950F016EA7
:1009C000000E032201C0EFF103C0F0F1E251040D6B
:1009D000F350036A950FE96E000E0320EA6EEFCF25
:1009E000F1F1ECCFF2F1ECCFF3F1ECCFF4F1010E39
:1009F000F15D006E000EF259016E000EF359026EA9
:100A0000000EF459F0C1EAFFEFC1E9FF00C0EFFFAB
:100A100001C0ECFF02C0ECFFEC6EFAD0E251040D15
:100A2000F350036AB90FE96E000E0320EA6EEFCFB0
:100A3000EFF1ECCFF0F1ECCFF1F1ECCFF2F1E251CC
:100A4000040DF350036A3B0FE96E010E0320EA6EBA
:100A5000EFCF00F0ECCF01F0ECCF02F0ECCF03F0E1
:100A60000050EF5DD8A4D4D00150F05DD8A4D0D010
:100A70000250F15DD8A4CCD00350F25DD8A4C8D008
:100A8000E251040DF350036A950FE96E000E032046
:100A9000EA6EEFCFEFF1ECCFF0F1ECCFF1F1ECCF6C
:100AA000F2F1F2BF01D0B4D0036AE251E30FE96E74
:100AB000010E0320EA6EEFCFEFF1EFC1F0F10F0E60
:100AC000F26F800EF16F00010DDC000E01A0010E2F
:100AD000EFC1F0F10101F16F0F0EF36F890EF26FAC
:100AE000000151EC01F0EFC1F0F10101F16B0F0ECB
:100AF000F36F920EF26F000151EC01F0036A0101F5
:100B0000E2515B0FE96E000E0320EA6EEF520AE13C
:100B1000036AE2515B0FE96E000E0320EA6E010EDC
:100B2000EF6E76D0036AE2515B0FE96E000E032090
:100B3000EA6EEF6AE251040DF350036AB90F016ED9
:100B4000000E032201C0EFF103C0F0F1E251040DE9
:100B5000F350036AB90FE96E000E0320EA6EEFCF7F
:100B6000F1F1ECCFF2F1ECCFF3F1ECCFF4F1010EB7
:100B7000F15D006E000EF259016E000EF359026E27
:100B8000000EF459F0C1EAFFEFC1E9FF00C0EFFF2A
:100B900001C0ECFF02C0ECFFEC6E54504D0805E0C4
:100BA0005450520802E05A2C33D0E251040DF35055
:100BB000036A950F016E000E032201C0EFF103C01E
:100BC000F0F1E251040DF350036A950FE96E000E47
:100BD0000320EA6EEFCFF1F1ECCFF2F1ECCFF3F1BD
:100BE000ECCFF4F1010EF125006E000EF221016E42
:100BF000000EF321026E000EF421F0C1EAFFEFC1F6
:100C0000E9FF00C0EFFF01C0ECFF02C0ECFFEC6E9B
:100C1000036AE251AD0F016E000E032203C0F0F132
:100C2000036AE251B30FE96E000E0320EA6EEFCFC4
:100C3000F1F1F0C1EAFF01C0E9FFF1C1EFFF38D0E7
:100C4000E251040DF350036A950FE96E000E032084
:100C5000EA6EEFCFEFF1ECCFF0F1ECCFF1F1ECCFAA
:100C6000F2F1EF5325E1F05323E1F15321E1F25387
:100C70001FE1036AE251E30FE96E010E0320EA6E01
:100C8000EFCFEFF1EFC1F0F1F16B0F0EF36F890EC3
:100C9000F26F000151EC01F0EFC1F0F10101F16BD5
:100CA0000F0EF36F920EF26F000151EC01F0010193
:100CB000000112000101E26BE25131080AE3036A0C
:100CC000E2511F0FE96E000E0320EA6EEF6AE22B7D
:100CD000F3D71E6A000112000101E26B00018BECE8
:100CE00001F0010E0101E26F00018BEC01F0020E38
:100CF0000101E26F00018BEC01F0030E0101E26FD4
:100D000000018BEC01F0040E0101E26F00018BEC9D
:100D100001F0050E0101E26F00018BEC01F095532B
:100D2000D8A4A8D09653D8A4A5D09753D8A4A2D01D
:100D30009853D8A49FD09953D8A49CD09A53D8A4A0
:100D400099D09B53D8A496D09C53D8A493D09D53AC
:100D5000D8A490D09E53D8A48DD09F53D8A48AD025
:100D6000A053D8A487D0A153D8A484D0A253D8A488
:100D700081D0A353D8A47ED0A453D8A47BD0A553AC
:100D8000D8A478D0A653D8A475D0A753D8A472D02D
:100D9000A853D8A46FD0A953D8A46CD0AA536AE1A1
:100DA000AB5368E1AC5366E15A2C3AD0632D0AD0BC
:100DB000820EF66E0E0EF76E6DEC00F0636B010E98
:100DC000676F12D0642D0AD0860EF66E0E0EF76E87
:100DD0006DEC00F0010E676F646B06D08A0EF66E44
:100DE0000E0EF76E6DEC00F00101426B416B100EC0
:100DF000406FCC0E3F6F466B456B880E446FB80E4C
:100E0000436F5A6B596B030E586FE80E576F5E6B4A
:100E10005D6B160E5C6F440E5B6F5A6A04D0000166
:100E2000010E656F0101F29A0001616B43DF946B63
:100E3000946B945105081EE3936B9351050818E3D6
:100E40009351070DF3500101E36BE26F036A000158
:100E500094510101E225016EE35103220150690F13
:100E6000E96E000E0320EA6EEF6A0001932BE5D7CE
:100E7000942BDFD7D76A38C1D6FF616BF29430EF7D
:100E800000F02453240024462400244F4B24000067
:100E9000010EEA6E910EE96EEF500EE00F0E016E3C
:100EA000006A002EFED7012EFBD78F0E006E002E9B
:100EB000FED70000EF2EF2D71200010E0101915F64
:100EC0000DE3010EEA6E910EE96EEF5007E0020E9F
:100ED000006E002EFED700D0EF2EF9D700011200D1
:100EE000166AF2BE168EF29EE5DE16BEF28E936B89
:100EF0009351050855E39351040DF350036A950F80
:100F0000E96E000E0320EA6EEF6AEC6AEC6AEC6AA6
:100F1000036A9351AD0FE96E000E0320EA6EEF6A8B
:100F2000036A9351B30FE96E000E0320EA6EEF6A75
:100F30009351040DF350036AB90FE96E000E0320BC
:100F4000EA6EEF6AEC6AEC6AEC6A9351040DF350B6
:100F5000036AD10FE96E000E0320EA6EEF6AEC6AB5
:100F6000EC6AEC6A946B9451050818E39351070DF1
:100F7000F3500101916B906F036A000194510101DC
:100F80009025016E915103220150690FE96E000E08
:100F90000320EA6EEF6A0001942BE5D7932BA8D7C4
:100FA000E1EF09F09D9A010E01017E6F7F6F806F66
:100FB000816F826F836F846B856B866B876B886BA9
:100FC000896B928080B00FD0928280B20CD09284D4
:100FD00080B409D0928680B606D0928880B803D0BB
:100FE000928A80AAECD1928A80AA46D0030E3A6FE8
:100FF000E80E396F010E896F7D2D2BD0832D29D0FE
:101000008A6B8A51630824E3C00E956E8C9A936EA6
:101010008A8A130E006E002EFED700D0C00E936E8B
:101020008A9A130E006E002EFED700D03AC190F1BE
:10103000902B9007D8B405D0916900013EDF0101E3
:10104000F8D739C191F1000138DF01018A2BD9D7D6
:10105000836BC00E956E8C8A936E8A8A130E006E17
:10106000002EFED700D0C00E936E8A9A130E006E2B
:10107000002EFED700D092D1928880A852D0030EC5
:101080003A6F200E396F892D0CD0020E906FFA0E38
:10109000916F0001FDDE0101902FF9D7010E886FDD
:1010A000896B7D2D2BD0822D29D08B6B8B516308C2
:1010B00024E3C00E956E8C98936E8A88130E006E92
:1010C000002EFED700D0C00E936E8A98130E006ECD
:1010D000002EFED700D03AC190F1902B9007D8B4E3
:1010E00005D091690001E9DE0101F8D739C191F11C
:1010F0000001E3DE01018B2BD9D7826BC00E956E08
:101100008C88936E8A88130E006E002EFED700D056
:10111000C00E936E8A98130E006E002EFED700D07C
:101120003DD1928680A652D0170E3A6F700E396F5D
:10113000882D0CD0020E906FFA0E916F0001A8DE80
:101140000101902FF9D7010E876F886B7D2D2BD071
:10115000812D29D08C6B8C51630824E3C00E956ED1
:101160008C96936E8A86130E006E002EFED700D0EA
:10117000C00E936E8A96130E006E002EFED700D01E
:101180003AC190F1902B9007D8B405D09169000135
:1011900094DE0101F8D739C191F100018EDE010121
:1011A0008C2BD9D7816BC00E956E8C86936E8A86F8
:1011B000130E006E002EFED700D0C00E936E8A96DE
:1011C000130E006E002EFED700D0E8D0928480A4CB
:1011D00052D0010E3A6F900E396F872D0CD0040E4D
:1011E000906FFA0E916F000153DE0101902FF9D735
:1011F000010E866F876B7D2D2BD0802D29D08D6BB6
:101200008D51630824E3C00E956E8C94936E8A848E
:10121000130E006E002EFED700D0C00E936E8A947F
:10122000130E006E002EFED700D03AC190F1902B25
:101230009007D8B405D0916900013FDE0101F8D7CD
:1012400039C191F1000139DE01018D2BD9D7806BB5
:10125000C00E956E8C84936E8A84130E006E002EE1
:10126000FED700D0C00E936E8A94130E006E002E2F
:10127000FED700D093D0928280A247D00C0E3A6F56
:10128000800E396F862D0CD0020E906FFA0E916F82
:101290000001FEDD0101902FF9D7010E856F866BED
:1012A0007D2D20D07F2D1ED08E6B8E51630819E3CB
:1012B000C00E956E8C92936E8A82130E006E002E75
:1012C000FED700D0C00E936E8A92130E006E002ED1
:1012D000FED700D0070E916F0001DADD01018E2BE1
:1012E000E4D77F6BC00E956E8C82936E8A82130E4C
:1012F000006E002EFED700D0C00E936E8A92130EA1
:10130000006E002EFED700D049D0928080A046D03B
:10131000030E3A6FE80E396F852D0CD0020E906FD8
:10132000FA0E916F0001B4DD0101902FF9D7010E83
:10133000846F856B7D2D20D07E2D1ED08F6B8F51BD
:10134000950819E3C00E956E8C90936E8A80130EEB
:10135000006E002EFED700D0C00E936E8A90130E42
:10136000006E002EFED700D0030E916F000190DDBD
:1013700001018F2BE4D77E6BC00E956E8C80936E2F
:101380008A80130E006E002EFED700D0C00E936E22
:101390008A90130E006E002EFED700D03AC190F155
:1013A000902B9007D8B405D09169000186DD01012A
:1013B000F8D739C191F1000180DD010102D60001A9
:1013C0008FD59D8A12000101D46BD56B010ED66FAB
:1013D000DA6AD96AD96FCC0ED86F010EEA6ED00ED8
:1013E000E96ED9C1E2FFD8C1E1FFD6C1D7F1D890EB
:1013F000E550EE02F350D423F450D523D72FF7D77E
:10140000D4C1DEFFD5C1D4F1D56BD8B0D52BD82B44
:10141000D8B4D92BD62BD6510508DFE10001A0EFB7
:101420000AF0D8B204D0010EEA6EDC0EE96E0101BA
:10143000D751DB19800BE16FD7AF0BD0D41FD51F6D
:10144000D61FD71FD42BD8B4D52BD8B4D62BD8B40D
:10145000D72BDBAF0BD0D81FD91FDA1FDB1FD82B40
:10146000D8B4D92BD8B4DA2BD8B4DB2B006A016AF4
:10147000026A036ADC6BDD6BDE6BDF6BDB51DA115A
:10148000D911D8112CE0200EE06FD890D437D53781
:10149000D637D737DC37DD37DE37DF37DB51DF5D77
:1014A00008E1DA51DE5D05E1D951DD5D02E1D85197
:1014B000DC5D0FE3D851DC5FD951D8A0D93DDD5FA9
:1014C000DA51D8A0DA3DDE5FDB51D8A0DB3DDF5F2B
:1014D000D8800036013602360336E02FD6D7E1AF8A
:1014E0000BD0001E011E021E031E002AD8B4012AC2
:1014F000D8B4022AD8B4032ADCC1EFFFDDC1ECFF67
:10150000DEC1ECFFDFC1ECFF000112000101C76B7F
:10151000C66BC56B010EC46FC96BCA6BC0AF19D067
:10152000010EC96FC0C1CFF1BFC1CEF1BEC1CDF1B7
:10153000BDC1CCF1D369D269D169D069000143D76B
:1015400003C0C0F102C0BFF101C0BEF100C0BDF1D7
:101550000101C45306E1C55304E1C65302E1C75378
:101560006DE0D892C0C1D7F1BFC1D6F1BEC1D5F1EF
:10157000BDC1D4F1DB6BDA6BD96BC1C1D8F100010D
:1015800050DF03C0C7F102C0C6F101C0C5F100C001
:10159000C4F1036A0101CA51C225016EC35103227D
:1015A00001C0CCF103C0CDF1EACFCFF1E9CFCEF14C
:1015B000D882010EEA6ED00EE96EC0C1D7F1BFC16C
:1015C000D6F1BEC1D5F1BDC1D4F1DB6BDA6BD96BFD
:1015D000C1C1D8F1000125DFCFC1EAFFCEC1E9FFCB
:1015E000300E0101D025006E000ED121000ED22157
:1015F000000ED321CDC1EAFFCCC1E9FF00C0EFFF4F
:10160000036ACA51C225E96EC3510320EA6EEF5046
:1016100039080AE2036ACA51C225E96EC3510320A0
:10162000EA6E070EEF24EF6ECA2BC7C1C0F1C6C128
:10163000BFF1C5C1BEF1C4C1BDF18BD7C92D0AD060
:10164000036ACA51C225E96EC3510320EA6E2D0E0A
:10165000EF6ECA2BC86BD890CA31C85D2FE2036AFF
:10166000C851C225E96EC3510320EA6EEFCFCBF11A
:10167000036AC851C225016EC351032203C0CDF1D4
:10168000C851CA5DFF0F036AC225E96EC35103202A
:10169000EA6EEFCFCEF1CDC1EAFF01C0E9FFCEC1C6
:1016A000EFFFC851CA5DFF0F036AC225E96EC3513F
:1016B0000320EA6ECBC1EFFFC82BCDD7036ACA5116
:1016C000C225E96EC3510320EA6EEF6AC2C101F080
:1016D000C3C102F0000149EF0CF02A0E01017D6F39
:1016E000310E7E6F2B0E7F6F300E806F816F826F99
:1016F000836F846F330E856F320E866F2B0E876F6C
:10170000300E886F896F8A6F8B6F8C6F330E8D6F81
:101710008E6F2B0E8F6F300E906F916F926F936F55
:10172000946F330E956F340E966F2B0E976F300EAD
:10173000986F996F9A6F9B6F9C6F330E9D6F350EEC
:101740009E6F2B0E9F6F300EA06FA16FA26FA36FC5
:10175000A46F330EA56F360EA66F2B0EA76F300E3B
:10176000A86FA96FAA6FAB6FAC6F330EAD6F2A0E67
:10177000AE6FAF6B300EB06FB16FB26FB36FB46F4F
:10178000B56BB66BB65105085BE30001682D2CD034
:101790000101B651040DF350036A190F016E010ED9
:1017A000032201C0B9F103C0BAF1B651040DF350E0
:1017B000036A010FE96E010E0320EA6EEFCF00F01D
:1017C000ECCF01F0ECCF02F0ECCF03F0BAC1EAFFAE
:1017D000B9C1E9FF00C0EFFF01C0ECFF02C0ECFFA0
:1017E00003C0ECFF2BD000010101B651040DF350F2
:1017F000036A190F016E010E032201C0B9F103C083
:10180000BAF1B651040DF350036AB90FE96E000E38
:101810000320EA6EEFCF00F0ECCF01F0ECCF02F046
:10182000ECCF03F0BAC1EAFFB9C1E9FF00C0EFFF96
:1018300001C0ECFF02C0ECFF03C0ECFFB62BA2D747
:101840000001686B0101B76BB7510508D8A0DED263
:10185000B751040DF350036A190FE96E010E03200E
:10186000EA6EEFCFB9F1ECCFBAF1ECCFBBF1ECCF30
:10187000BCF1BCC1C0F1BBC1BFF1BAC1BEF1B9C1BD
:10188000BDF10A0EC16F010EC36FB00EC26F000131
:101890003DD60101B751040DF350036A190FE96EEB
:1018A000010E0320EA6EEFCFB9F1ECCFBAF1ECCF25
:1018B000BBF1ECCFBCF1BCBF49D0BC530AE1BB5378
:1018C00008E1BA51260842E2FF0A03E1B9510F08C4
:1018D0003DE2B751080DF350030F036A7D0FE96E27
:1018E000010E0320EA6EB0C1EFFFB751080DF350AF
:1018F000040F036A7D0FE96E010E0320EA6EB1C189
:10190000EFFFB751080DF350050F036A7D0FE96E25
:10191000010E0320EA6EB2C1EFFFB751080DF3507C
:10192000060F036A7D0FE96E010E0320EA6EB3C154
:10193000EFFFB751080DF350070F036A7D0FE96EF3
:10194000010E0320EA6EB4C1EFFF30D2B751040D8F
:10195000F350036A190FE96E010E0320EA6EEFCF10
:10196000B9F1ECCFBAF1ECCFBBF1ECCFBCF1BCBF1D
:101970000BD0BC5365E1BB5363E1BA51270860E368
:1019800003E1B9510F085CE3B751040DF350036A4A
:10199000190FE96E010E0320EA6EEFCFB9F1ECCF1B
:1019A000BAF1ECCFBBF1ECCFBCF1BCBF49D0BC531A
:1019B0000AE1BB5308E1BA51020842E2FF0A03E11F
:1019C000B951E7083DE2B751080DF350030F036A20
:1019D0007D0FE96E010E0320EA6E300EEF6EB751F7
:1019E000080DF350040F036A7D0FE96E010E03200A
:1019F000EA6EB0C1EFFFB751080DF350050F036A4F
:101A00007D0FE96E010E0320EA6EB1C1EFFFB75101
:101A1000080DF350060F036A7D0FE96E010E0320D7
:101A2000EA6EB2C1EFFFB751080DF350070F036A1A
:101A30007D0FE96E010E0320EA6EB3C1EFFFB6D150
:101A4000B751040DF350036A190FE96E010E03201C
:101A5000EA6EEFCFB9F1ECCFBAF1ECCFBBF1ECCF3E
:101A6000BCF1BCBF0BD0BC5362E1BB5360E1BA51C7
:101A700003085DE303E1B951E70859E3B751040DE9
:101A8000F350036A190FE96E010E0320EA6EEFCFDF
:101A9000B9F1ECCFBAF1ECCFBBF1ECCFBCF1BCBFEC
:101AA00046D0BC5307E1BB5305E1BA5303E1B9513A
:101AB00063083DE2B751080DF350030F036A7D0F31
:101AC000E96E010E0320EA6E300EEF6EB751080D7D
:101AD000F350040F036A7D0FE96E010E0320EA6ED6
:101AE000300EEF6EB751080DF350050F036A7D0FEE
:101AF000E96E010E0320EA6EB0C1EFFFB751080D89
:101B0000F350060F036A7D0FE96E010E0320EA6EA3
:101B1000B1C1EFFFB751080DF350070F036A7D0FF6
:101B2000E96E010E0320EA6EB2C1EFFF3FD1B7515B
:101B3000040DF350036A190FE96E010E0320EA6EDB
:101B4000EFCFB9F1ECCFBAF1ECCFBBF1ECCFBCF1F8
:101B5000BCBF09D0BC5360E1BB535EE1BA535CE14A
:101B6000B951630859E3B751040DF350036A190FD3
:101B7000E96E010E0320EA6EEFCFB9F1ECCFBAF1B6
:101B8000ECCFBBF1ECCFBCF1BCBF46D0BC5307E1FE
:101B9000BB5305E1BA5303E1B95109083DE2B7511E
:101BA000080DF350030F036A7D0FE96E010E032049
:101BB000EA6E300EEF6EB751080DF350040F036A52
:101BC0007D0FE96E010E0320EA6E300EEF6EB75105
:101BD000080DF350050F036A7D0FE96E010E032017
:101BE000EA6E300EEF6EB751080DF350060F036A20
:101BF0007D0FE96E010E0320EA6EB0C1EFFFB75111
:101C0000080DF350070F036A7D0FE96E010E0320E4
:101C1000EA6EB1C1EFFFCAD0B751040DF350036AA9
:101C2000190FE96E010E0320EA6EEFCFB9F1ECCF88
:101C3000BAF1ECCFBBF1ECCFBCF1BCBF09D0BC53C7
:101C400060E1BB535EE1BA535CE1B951090859E365
:101C5000B751040DF350036A190FE96E010E03200A
:101C6000EA6EEFCFB9F1ECCFBAF1ECCFBBF1ECCF2C
:101C7000BCF1BCBF46D0BC5307E1BB5305E1BA532E
:101C800003E1B95100083DE2B751080DF350030FCD
:101C9000036A7D0FE96E010E0320EA6E300EEF6ECF
:101CA000B751080DF350040F036A7D0FE96E010E62
:101CB0000320EA6E300EEF6EB751080DF350050F9A
:101CC000036A7D0FE96E010E0320EA6E300EEF6E9F
:101CD000B751080DF350060F036A7D0FE96E010E30
:101CE0000320EA6E300EEF6EB751080DF350070F68
:101CF000036A7D0FE96E010E0320EA6EB0C1EFFFAB
:101D000055D0B751040DF350036A190FE96E010E57
:101D10000320EA6EEFCFB9F1ECCFBAF1ECCFBBF113
:101D2000ECCFBCF1B95342E1BA5340E1BB533EE1C1
:101D3000BC533CE1B751080DF350030F036A7D0F0C
:101D4000E96E010E0320EA6E300EEF6EB751080DFA
:101D5000F350040F036A7D0FE96E010E0320EA6E53
:101D6000300EEF6EB751080DF350050F036A7D0F6B
:101D7000E96E010E0320EA6E300EEF6EB751080DCA
:101D8000F350060F036A7D0FE96E010E0320EA6E21
:101D9000300EEF6EB751080DF350070F036A7D0F39
:101DA000E96E010E0320EA6E300EEF6EB751080D9A
:101DB000F350020F036A7D0F016E010E032203C070
:101DC000BAF1036AB7516B0FE96E010E0320EA6E98
:101DD000EFCFBBF1BAC1EAFF01C0E9FFBBC1EFFF22
:101DE000010EEA6EB00EE96EF2CFB9F1F29E000E6E
:101DF000000151EC00F00A000900F550EE6E0009F8
:101E0000FBE10101B9BFF28EB72B1ED5B86BB851FB
:101E100005080BE3036AB8516B0FE96E010E03204E
:101E2000EA6E2B0EEF6EB82BF2D7010EEA6E7D0E26
:101E3000E96E166AF2BE168EF29E00017EEC00F08C
:101E400016BEF28E11EF17F001017D6B7D51050872
:101E5000D8A078D07D51040DF350036A950F016E20
:101E6000000E032201C07EF103C07FF1D8907D35C2
:101E7000036A710FE96E010E0320EA6EECCF81F167
:101E8000ED52EFCF80F17D51040DF350036AB90F8D
:101E9000E96E000E0320EA6EEFCF00F0ECCF01F008
:101EA000ECCF02F0ECCF03F00050805D006E0150EB
:101EB0008159016E000E025603567FC1EAFF7EC1B2
:101EC000E9FF00C0EFFF01C0ECFF02C0ECFF03C060
:101ED000ECFF7D51FA0F1DE2060F0001B0EF0FF08D
:101EE000050EAD6F010115D00C0EAE6F010111D0C2
:101EF000010EAF6F01010DD0320EB06F010109D09C
:101F0000050EB16F010105D0050EB26F010101D0C0
:101F10000101036A7D51B30F016E000E032203C05D
:101F20007FF1036A7D51AD0FE96E000E0320EA6E6A
:101F3000EFCF80F17FC1EAFF01C0E9FF80C1EFFF71
:101F40007D2B84D7010E5A6E0001616F166AF2BEB6
:101F5000168EF29E5AEC06F016BEF28E1DEF17F0AA
:101F6000F2CF0DF0F29EE824F76AF736850FF66E91
:101F70001F0EF7220A00F550FA6E0800F5500DBE4C
:101F8000F28EF96EE01EE81EF01EF81E001F081FFC
:101F900001019251D8B471D0006E9651D8B46DD071
:101FA000002604E3810E002668E204D07F0E005E66
:101FB00064E363E093C19AF197519A1B938F978FD3
:101FC00095519903F4CF9CF194519803F4CF03F009
:101FD000F3CF9BF19903F3509C27F4509B23000E01
:101FE000032295519803F3509C27F4509B23000E35
:101FF000026A0322022293519903F3509B27F45063
:102000000322000E022293519803F3500326F4504A
:102010000222000E016A012295519703F3509B277B
:10202000F4500322000E0222012294519703F35030
:102030000326F4500222000E012293519703F3501D
:102040000226F4500122002A01BE05D09B37033638
:10205000023601360006000E9BAF0AD0032A022288
:102060000122015005E1025003E1035001E1002A81
:102070009ABF018E9AAF019E04D0006A016A026A7B
:10208000036A000112008E0E006E97C101F096C126
:1020900002F0036A015209E102C001F0026A080E6F
:1020A000005E015202E1006A08D0D89001BE04D05F
:1020B000023601360006F9D7019E12000101965141
:1020C000D8B4A5D0A26F9A51D8B4A1D0A25F05E32D
:1020D0007F0EA227D8B09BD006D0810EA25FD8A0D9
:1020E00096D0D8B494D0A2C100F0016A026A036A03
:1020F000A16B97C1A0F1A08F98C19FF199C19EF1EA
:10210000190EA26F9D519E5F0DE2010E9F5F0AE2C4
:10211000A05F08E2A15F06E2A12BA02B9F2B9D519F
:102120009E2728D09C519F5F12E2010EA05F0FE214
:10213000A15F0DE2A12BA02B9C519F279D519E27B3
:1021400019E39F2B17E1A02B15E1A12B13D09B5175
:102150008009A05F0EE2010EA15F0BE2A12B9B5153
:102160008009A0279C519F27E9E3A02BE7E1A12B41
:10217000E5D70380A22F01D00BD0D8909E379F3790
:10218000A037A137D890033602360136A337BAD725
:10219000A3A106D0D890013202320332A33302D079
:1021A000000635E0A3BF1ED0D8909E379F37A037DA
:1021B000A1379D519E5F07E2010E9F5F04E2A05F81
:1021C00002E2A15F1AE39C519F5F05E2010EA05F4E
:1021D00002E2A15F12E39B518009A05F03E2010EBE
:1021E000A15F0BE3032A09E1022A07E1012A05E1C5
:1021F000002A0DE001320232033297C1A2F19B5155
:10220000A21BA2AF02D0018E06D0019E04D0006AAC
:10221000016A026A036A0001CCEF12F0800ED8A2B4
:1022200002D001019B1B0101A06BA16B97C19FF123
:102230009B519F1B9651D8B4DFD09E6F006E9A5170
:10224000D8B4E3D09E5FD8B483D03EE39BC1A4F161
:10225000A48F9CC1A3F19DC1A2F1A16BD890A4331E
:10226000A333A233A1339E2FF8D79FAF03D0A08111
:10227000E0D0A0919E91A089010EEA6E990EE96EC0
:10228000EBD0A0999FBF0AD09EA113D0A433A33353
:10229000A233A133002AD8B4C7D00BD0A4BF0CD02E
:1022A000D890A137A237A337A4370006D8B4BCD042
:1022B000F5D7A08D6DD0A09D97C19FF197AF02D0AB
:1022C000A48FABD0A49FA9D09AC19EF19AC100F06F
:1022D00096519E5F97C1A4F1A48F98C1A3F199C1B3
:1022E000A2F1A16BD890A433A333A233A1339E2FC4
:1022F000F8D79FAF03D0A0839CD0A0939E91A08BD2
:10230000010EEA6E9D0EE96EA7D0A09B9FBF0AD07A
:102310009EA113D0A433A333A233A133002AD8B48F
:1023200083D00BD0A4BF0CD0D890A137A237A3374D
:10233000A4370006D8B478D0F5D7A08F29D0A09FB5
:102340009BC19FF19BAF02D0A48F67D0A49F65D0A3
:102350009BC1A4F1A48F9CC1A3F19DC1A2F19FAF29
:1023600004D0A49FA08565D0A095A16B9E91010E7D
:10237000EA6E990EE96E70D09FBF1CD097C19FF195
:102380009EA106D0A433A333A233A133002A4CE08C
:10239000A1AF0BD0A22B09E1A32B07E1A42B05E1F0
:1023A000A433A333A233002A3FE0A0BD84D7A0BF4B
:1023B000C6D71CD0800EA41BA4AF04D03AD09BC1BA
:1023C0009FF10AD097C19FF1A45306E1A35304E102
:1023D000A25302E1006A21D0A4BF08D0D890A1374F
:1023E000A237A337A437002EF7D71ED09FAF02D055
:1023F000A48F13D0A49F11D09AC100F09BC1A4F167
:102400009CC1A3F19DC1A2F108D096C100F097C173
:10241000A4F198C1A3F199C1A2F1A4C101F0A3C193
:1024200002F0A2C103F034D0006A016A026A036AB2
:102430002FD0A16BA21FA31FA41FA11FA12B05E1D9
:10244000A22B03E1A32B01E1A42BA0B112D7A0B3CF
:1024500054D7A0B589D7B3D7EF50A22705E3A32B54
:1024600003E1A42BD8B49E81ED52EF50A32703E3E0
:10247000A42BD8B49E81ED52EF50EFBE01D0800A5C
:10248000A427D8B09E81A0B9FCD6A0BB3ED774D7F4
:102490000001120001018A6B896B886B7F0E876FC8
:1024A0008E6B8D6B8C6B8B6B8F818F938F95916BFC
:1024B0008351841105E1006A016A026A036A0FD13F
:1024C0009151912B036A8325E96E84510320EA6EB2
:1024D000EFCF90F19053D8B4C5D08FA10FD09051C9
:1024E00020080CE08F9190512B0803E18F93ADD021
:1024F00005D090512D0802E18F83A7D08FB107D06E
:1025000090512E0804E18FB502D08F859ED08FB1F7
:1025100099D090512F08D8B095D090513908D8A0B3
:1025200091D0300E905F8FA553D08AC195F189C1AB
:1025300094F188C193F187C192F1996B986B200E49
:10254000976F820E966F000123DD03C08AF102C0EF
:1025500089F101C088F100C087F10101976B90C13A
:1025600096F1000190DD03C095F102C094F101C025
:1025700093F100C092F103C099F102C098F101C03B
:1025800097F100C096F18AC19DF189C19CF188C183
:102590009BF187C19AF192D5D8928EC199F18DC1E4
:1025A00098F18CC197F18BC196F103C09DF102C0E7
:1025B0009CF101C09BF100C09AF130DE03C08EF1A6
:1025C00002C08DF101C08CF100C08BF139D0010146
:1025D000956B946B200E936F820E926F8EC199F162
:1025E0008DC198F18CC197F18BC196F10001D0DCBF
:1025F00003C095F102C094F101C093F100C092F1C3
:102600000101976B90C196F100013DDDD89295C113
:1026100099F194C198F193C197F192C196F103C0D9
:102620009DF102C09CF101C09BF100C09AF1F6DD62
:1026300003C08EF102C08DF101C08CF100C08BF19E
:1026400005D001018FB101D00DD0000101019151E0
:10265000912B036A8325E96E84510320EA6EEFCF44
:1026600090F138D78FA319D0956B946B800E936F30
:102670007F0E926F8EC199F18DC198F18CC197F147
:102680008BC196F1000184DC03C08EF102C08DF194
:1026900001C08CF100C08BF101018551861117E05A
:1026A00091530CE0910785C1E9FF86C1EAFF915182
:1026B0008325EF6E000E8421EC6E09D085C1E9FF01
:1026C00086C1EAFF84C1ECFFED5283C1EFFF8BC1ED
:1026D00000F08CC101F08DC102F08EC103F0000149
:1026E0005FEF14F001018351B608836F036A84C160
:1026F00087F1848FD8908433853386330332023256
:1027000001320032832FF6D787AF0BD0001E011E97
:10271000021E031E002AD8B4012AD8B4022AD8B453
:10272000032A000168EF14F001017E6B7F6B806B60
:10273000806B5350805D3EE2036A7E511F0FE96E4D
:10274000000E0320EA6EEFCF7DF1310E7D5D0001BA
:10275000946F01017F6B7F51060828E300019451BB
:10276000070DF3500101826B816F036A7F51812550
:10277000016E825103220150690F016E000E032287
:1027800003C082F1010E7E25036A1F0FE96E000E61
:102790000320EA6EEFCF83F182C1EAFF01C0E9FFB7
:1027A00083C1EFFF010E7E277F2BD5D7010E7E2739
:1027B000802BBFD77D6B7D510508D8A0E4D07D511B
:1027C000070DF350826B816F690E8125E96E000E53
:1027D0008221EA6EEFCF31F17D51070DF350826B0C
:1027E000816F010E8125016E000E8221036E015062
:1027F000690FE96E000E0320EA6EEFCF32F17D51D2
:10280000070DF350826B816F020E8125016E000E61
:102810008221036E0150690FE96E000E0320EA6EFB
:10282000EFCF33F17D51070DF350826B816F030EB3
:102830008125016E000E8221036E0150690FE96E41
:10284000000E0320EA6EEFCF34F17D51070DF350F7
:10285000826B816F040E8125016E000E8221036E52
:102860000150690FE96E000E0320EA6EEFCF35F1DB
:102870007D51070DF350826B816F050E8125016E2E
:10288000000E8221036E0150690FE96E000E0320D5
:10289000EA6EEFCF36F17D51040DF350036A950FC8
:1028A000016E000E032201C081F103C082F1010E0E
:1028B000846F310E836F866B856B0001EBD503C08F
:1028C00086F102C085F101C084F100C083F10AD70E
:1028D00082C1EAFF81C1E9FF00C0EFFF01C0ECFF48
:1028E00002C0ECFF03C0ECFF01017D51070DF35066
:1028F000826B816F060E8125016E000E8221036EB0
:102900000150690FE96E000E0320EA6EEFCF37F138
:10291000036A7D51AD0FE96E000E0320EA6E300EA2
:10292000375DEF6E7D5306E10001AD51030DF3CF2E
:10293000ADF001017D2D04D0D8900001AE3701012A
:102940007D51030806E10001B0510A0DF3CFB0F04C
:102950000101376B036A7D51B30F016E000E032234
:1029600003C082F1036A7D51AD0FE96E000E0320B2
:10297000EA6EEFCF83F182C1EAFF01C0E9FF83C1B4
:10298000EFFF7D2B18D7010E0001616F526A166AA6
:10299000F2BE168EF29E5AEC06F016BEF28ED76A82
:1029A00038C1D6FF9D8A556A21EF17F001017D6B72
:1029B0007D5105085BE37D51040DF350036AD10F8F
:1029C000016E000E032201C07EF103C07FF1D8909A
:1029D0007D35036A710FE96E010E0320EA6EECCFBC
:1029E00003F0ED52EFCF00F003C001F0026A036A7A
:1029F0007FC1EAFF7EC1E9FF00C0EFFF01C0ECFF2D
:102A000002C0ECFF03C0ECFF7D51040DF350036ADC
:102A1000E90FE96E000E0320EA6EEF6AEC6AEC6AD9
:102A2000EC6A7D51040DF350036A010FE96E010E4B
:102A30000320EA6EEF6AEC6AEC6AEC6A7D51040DE1
:102A4000F350036A190FE96E010E0320EA6EEF6A74
:102A5000EC6AEC6AEC6A036A7D516B0FE96E010E59
:102A60000320EA6E2B0EEF6E7D2BA2D7000128EF1C
:102A700017F001017D6B7D510508D8A027D17D514C
:102A8000040DF350036AE90F016E000E032201C02A
:102A90007EF103C07FF17D51040DF350036AB90F3D
:102AA000E96E000E0320EA6EEFCF00F0ECCF01F0EC
:102AB000ECCF02F0ECCF03F07FC1EAFF7EC1E9FF6B
:102AC00000C0EFFF01C0ECFF02C0ECFF03C0ECFF51
:102AD0007D51040DF350036AE90FE96E000E0320E7
:102AE000EA6EEFCF7EF1ECCF7FF1ECCF80F1ECCF4F
:102AF00081F17D51040DF350036AD10FE96E000E90
:102B00000320EA6EEFCF00F0ECCF01F0ECCF02F043
:102B1000ECCF03F003AE03D081AF12D002D081BF5F
:102B20005DD00350815D5AE30BE10250805D56E3B6
:102B300007E101507F5D52E303E100507E5D4EE30B
:102B40007D51040DF350036A010F016E010E032243
:102B500001C07EF103C07FF17D51040DF350036A83
:102B6000E90FE96E000E0320EA6EEFCF80F1ECCFA3
:102B700081F1ECCF82F1ECCF83F17D51040DF35064
:102B8000036AD10FE96E000E0320EA6EEFCF00F06A
:102B9000ECCF01F0ECCF02F0ECCF03F00050805D01
:102BA000006E01508159016E02508259026E03502D
:102BB00083597FC1EAFF7EC1E9FF00C0EFFF01C07A
:102BC000ECFF02C0ECFFEC6E036A7D516B0FE96E07
:102BD000010E0320EA6E2B0EEF6E4DD07D51040DD9
:102BE000F350036A010F016E010E032201C07EF152
:102BF00003C07FF17D51040DF350036AD10FE96EDC
:102C0000000E0320EA6EEFCF80F1ECCF81F1ECCF24
:102C100082F1ECCF83F17D51040DF350036AE90F8B
:102C2000E96E000E0320EA6EEFCF00F0ECCF01F06A
:102C3000ECCF02F0ECCF03F00050805D006E01504D
:102C40008159016E02508259026E035083597FC12F
:102C5000EAFF7EC1E9FF00C0EFFF01C0ECFF02C048
:102C6000ECFFEC6E036A7D516B0FE96E010E0320E1
:102C7000EA6E2D0EEF6E7D51040DF350036AD10FF5
:102C8000016E000E032201C07EF103C07FF17D5171
:102C9000040DF350036AE90FE96E000E0320EA6E9B
:102CA000EFCF00F0ECCF01F0ECCF02F0ECCF03F06F
:102CB0007FC1EAFF7EC1E9FF00C0EFFF01C0ECFF6A
:102CC00002C0ECFF03C0ECFF7D2BD5D6010E000146
:102CD000656F686F2CEF17F0F86AD09E078E1D6A3B
:102CE000B886E10EAF6E040EB06EA60EAC6E900EFE
:102CF000AB6E1E6A516A526A536A546A556A566AC2
:102D0000576A586A596A5A6A616B626B636B646B83
:102D1000656B666B676B686B936B946B0101376BCC
:102D2000960E386F030E3A6FE80E396FC150C00B24
:102D30000F09C16E070EB46E2BD0020017000006FB
:102D4000405B002A4069003C4095000A8046140020
:102D500000C4090000EA5606C0000280901A54C060
:102D60000016013B8B28000063120000D5AD000067
:102D7000941100001935000000191AC00006C02B7C
:102D80000C804614C409EA560000901A00000000A6
:102D9000000EF86E2D0EF76E3A0EF66E0900F55025
:102DA000006E000A13E00900F550016EE8BE05D080
:102DB0000F0BEA6E0900F5CFE9FF01BC090001AC79
:102DC0000900F5CFEEFF004EE9D7F9D7F86A166A89
:102DD000F2BE168EF29E00015AEC06F016BEF28E7E
:102DE000F80E946E8B82946E8B80946E8B840C0E96
:102DF00001017D6FFA0E916F000148EC07F00101AF
:102E00007D2FF8D7010E7D6F0001D2EC07F0C80EC0
:102E1000D56EC00EF2129D8A652D03D0656B6DEFE5
:102E20000BF0622D06D001017D6B0001D2EC07F0A2
:102E3000626B592C03D024EF0FF0596A552C01D046
:102E400073D4612D01D0F28A672D02D0676BAED5A5
:0C2E5000662D02D0666B0DD6DFD70300A4
:020000040030CA
:0E00000024CE3E1E0087A1000FC00FE00F406F
:00000001FF
;PIC18F4550
;CRC=A3E1  CREATED="15-nov-19 17:06"
